:020000040800F2
:1000000000000220110000086D0000086D000008CB
:1000100080B582B000AF104B7B60104B3B6007E0B7
:100020007A68131D7B603B68191D396012681A607D
:100030003B680B4A9342F3D30A4B3B6004E03B68B6
:100040001A1D3A6000221A603B68074A9342F6D3B1
:1000500000F010F8FEE700BFB80000080000002024
:1000600004000020040000200800002080B400AF3D
:10007000FEE7000080B400AF074B1B680133064A5F
:10008000136004E0054B1B680133044A1360034B03
:100090001B68632BF6DDEFE7040000200000002062
:1000A000F8B500BFF8BC08BC9E467047F8B500BF65
:0800B000F8BC08BC9E46704735
:0400B8002A0000001A
:0400000508000011DE
:00000001FF
