:020000040800F2
:1000000000000220110000086D0000086D000008CB
:1000100080B582B000AF104B7B60104B3B6007E0B7
:100020007A68131D7B603B68191D396012681A607D
:100030003B680B4A9342F3D30A4B3B6004E03B68B6
:100040001A1D3A6000221A603B68074A9342F6D3B1
:1000500000F00FF8FEE700BF1001000800000020CC
:1000600000000020000000200000002080B400AF4D
:10007000FEE780B500AF00F003F80023184680BD0E
:1000800080B483B000AF174B1B68164A43F00103DE
:100090001360154B1B68144A23F440631360124B22
:1000A0001B68114A43F480631360104B1B680F4AAE
:1000B00023F4406313600D4B1B680C4A43F4006348
:1000C00013600B4B1B680A4A83F020031360002364
:1000D0007B6002E07B6801337B607B68054A93426A
:1000E000F8D9EEE730380240000002400800024034
:1000F000140002403F420F00F8B500BFF8BC08BC36
:100100009E467047F8B500BFF8BC08BC9E467047D5
:0400000508000011DE
:00000001FF
